{
  "_format": "hh-sol-artifact-1",
  "contractName": "TransferAndCall2",
  "sourceName": "contracts/dos/TransferAndCall2.sol",
  "abi": [
    {
      "inputs": [
        {
          "internalType": "address",
          "name": "to",
          "type": "address"
        },
        {
          "internalType": "address",
          "name": "operator",
          "type": "address"
        },
        {
          "internalType": "address",
          "name": "from",
          "type": "address"
        },
        {
          "components": [
            {
              "internalType": "address",
              "name": "token",
              "type": "address"
            },
            {
              "internalType": "uint256",
              "name": "amount",
              "type": "uint256"
            }
          ],
          "internalType": "struct ITransferReceiver2.Transfer[]",
          "name": "transfers",
          "type": "tuple[]"
        },
        {
          "internalType": "bytes",
          "name": "data",
          "type": "bytes"
        }
      ],
      "name": "onTransferReceivedFailed",
      "type": "error"
    },
    {
      "inputs": [
        {
          "internalType": "address",
          "name": "_operator",
          "type": "address"
        },
        {
          "internalType": "address",
          "name": "_from",
          "type": "address"
        },
        {
          "internalType": "uint256",
          "name": "_amount",
          "type": "uint256"
        },
        {
          "internalType": "bytes",
          "name": "_data",
          "type": "bytes"
        }
      ],
      "name": "onTransferReceived",
      "outputs": [
        {
          "internalType": "bytes4",
          "name": "",
          "type": "bytes4"
        }
      ],
      "stateMutability": "nonpayable",
      "type": "function"
    },
    {
      "inputs": [
        {
          "internalType": "address",
          "name": "receiver",
          "type": "address"
        },
        {
          "components": [
            {
              "internalType": "address",
              "name": "token",
              "type": "address"
            },
            {
              "internalType": "uint256",
              "name": "amount",
              "type": "uint256"
            }
          ],
          "internalType": "struct ITransferReceiver2.Transfer[]",
          "name": "transfers",
          "type": "tuple[]"
        },
        {
          "internalType": "bytes",
          "name": "data",
          "type": "bytes"
        }
      ],
      "name": "transferAndCall2",
      "outputs": [],
      "stateMutability": "nonpayable",
      "type": "function"
    },
    {
      "inputs": [
        {
          "internalType": "address",
          "name": "receiver",
          "type": "address"
        },
        {
          "internalType": "address",
          "name": "weth",
          "type": "address"
        },
        {
          "components": [
            {
              "internalType": "address",
              "name": "token",
              "type": "address"
            },
            {
              "internalType": "uint256",
              "name": "amount",
              "type": "uint256"
            }
          ],
          "internalType": "struct ITransferReceiver2.Transfer[]",
          "name": "transfers",
          "type": "tuple[]"
        },
        {
          "internalType": "bytes",
          "name": "data",
          "type": "bytes"
        }
      ],
      "name": "transferAndCall2",
      "outputs": [],
      "stateMutability": "payable",
      "type": "function"
    },
    {
      "inputs": [
        {
          "internalType": "address",
          "name": "from",
          "type": "address"
        },
        {
          "internalType": "address",
          "name": "receiver",
          "type": "address"
        },
        {
          "components": [
            {
              "internalType": "address",
              "name": "token",
              "type": "address"
            },
            {
              "internalType": "uint256",
              "name": "amount",
              "type": "uint256"
            }
          ],
          "internalType": "struct ITransferReceiver2.Transfer[]",
          "name": "transfers",
          "type": "tuple[]"
        },
        {
          "internalType": "bytes",
          "name": "data",
          "type": "bytes"
        }
      ],
      "name": "transferFromAndCall2",
      "outputs": [],
      "stateMutability": "nonpayable",
      "type": "function"
    }
  ],
  "bytecode": "0x608060405234801561001057600080fd5b50610da4806100206000396000f3fe60806040526004361061003f5760003560e01c806385bc3da01461004457806388a7ca5c14610066578063974bc3cf146100a3578063bcae8e87146100b6575b600080fd5b34801561005057600080fd5b5061006461005f366004610881565b6100d6565b005b34801561007257600080fd5b50610086610081366004610904565b610122565b6040516001600160e01b0319909116815260200160405180910390f35b6100646100b1366004610966565b6101d7565b3480156100c257600080fd5b506100646100d1366004610966565b610223565b61011b33866000878787878080601f01602080910402602001604051908101604052809392919081815260200183838082843760009201919091525061026892505050565b5050505050565b6000808061013284860186610a42565b60408051600180825281830190925292945090925060009190816020015b60408051808201909152600080825260208201528152602001906001900390816101505790505090506040518060400160405280336001600160a01b0316815260200188815250816000815181106101aa576101aa610aea565b60200260200101819052506101c2838a8a8486610421565b50632229f29760e21b98975050505050505050565b61021b338787878787878080601f01602080910402602001604051908101604052809392919081815260200183838082843760009201919091525061026892505050565b505050505050565b61021b86866000878787878080601f01602080910402602001604051908101604052809392919081815260200183838082843760009201919091525061026892505050565b34156102c357836001600160a01b031663d0e30db0346040518263ffffffff1660e01b81526004016000604051808303818588803b1580156102a957600080fd5b505af11580156102bd573d6000803e3d6000fd5b50505050505b6000805b838110156103a85760008585838181106102e3576102e3610aea565b6102f99260206040909202019081019150610b00565b9050806001600160a01b0316836001600160a01b03161061031957600080fd5b809250600086868481811061033057610330610aea565b905060400201602001359050876001600160a01b0316826001600160a01b031603610376576103696001600160a01b0389168a836104d3565b6103733482610b3a565b90505b818115610392576103926001600160a01b038216338c8561053b565b50505080806103a090610b53565b9150506102c7565b506001600160a01b0386163b15610418576104188633898787808060200260200160405190810160405280939291908181526020016000905b8282101561040d576103fe60408302860136819003810190610b6c565b815260200190600101906103e1565b505050505086610421565b50505050505050565b6040516332cfa10760e21b808252906001600160a01b0387169063cb3e841c90610455908890889088908890600401610c63565b6020604051808303816000875af1158015610474573d6000803e3d6000fd5b505050506040513d601f19601f820116820180604052508101906104989190610ca1565b6001600160e01b0319161461011b57848484848460405163dc41afe560e01b81526004016104ca959493929190610ccb565b60405180910390fd5b6040516001600160a01b03831660248201526044810182905261053690849063a9059cbb60e01b906064015b60408051601f198184030181529190526020810180516001600160e01b03166001600160e01b031990931692909217909152610579565b505050565b6040516001600160a01b03808516602483015283166044820152606481018290526105739085906323b872dd60e01b906084016104ff565b50505050565b60006105ce826040518060400160405280602081526020017f5361666545524332303a206c6f772d6c6576656c2063616c6c206661696c6564815250856001600160a01b031661064b9092919063ffffffff16565b80519091501561053657808060200190518101906105ec9190610d1d565b6105365760405162461bcd60e51b815260206004820152602a60248201527f5361666545524332303a204552433230206f7065726174696f6e20646964206e6044820152691bdd081cdd58d8d9595960b21b60648201526084016104ca565b606061065a8484600085610662565b949350505050565b6060824710156106c35760405162461bcd60e51b815260206004820152602660248201527f416464726573733a20696e73756666696369656e742062616c616e636520666f6044820152651c8818d85b1b60d21b60648201526084016104ca565b600080866001600160a01b031685876040516106df9190610d3f565b60006040518083038185875af1925050503d806000811461071c576040519150601f19603f3d011682016040523d82523d6000602084013e610721565b606091505b50915091506107328783838761073d565b979650505050505050565b606083156107ac5782516000036107a5576001600160a01b0385163b6107a55760405162461bcd60e51b815260206004820152601d60248201527f416464726573733a2063616c6c20746f206e6f6e2d636f6e747261637400000060448201526064016104ca565b508161065a565b61065a83838151156107c15781518083602001fd5b8060405162461bcd60e51b81526004016104ca9190610d5b565b6001600160a01b03811681146107f057600080fd5b50565b60008083601f84011261080557600080fd5b50813567ffffffffffffffff81111561081d57600080fd5b6020830191508360208260061b850101111561083857600080fd5b9250929050565b60008083601f84011261085157600080fd5b50813567ffffffffffffffff81111561086957600080fd5b60208301915083602082850101111561083857600080fd5b60008060008060006060868803121561089957600080fd5b85356108a4816107db565b9450602086013567ffffffffffffffff808211156108c157600080fd5b6108cd89838a016107f3565b909650945060408801359150808211156108e657600080fd5b506108f38882890161083f565b969995985093965092949392505050565b60008060008060006080868803121561091c57600080fd5b8535610927816107db565b94506020860135610937816107db565b935060408601359250606086013567ffffffffffffffff81111561095a57600080fd5b6108f38882890161083f565b6000806000806000806080878903121561097f57600080fd5b863561098a816107db565b9550602087013561099a816107db565b9450604087013567ffffffffffffffff808211156109b757600080fd5b6109c38a838b016107f3565b909650945060608901359150808211156109dc57600080fd5b506109e989828a0161083f565b979a9699509497509295939492505050565b634e487b7160e01b600052604160045260246000fd5b604051601f8201601f1916810167ffffffffffffffff81118282101715610a3a57610a3a6109fb565b604052919050565b60008060408385031215610a5557600080fd5b8235610a60816107db565b915060208381013567ffffffffffffffff80821115610a7e57600080fd5b818601915086601f830112610a9257600080fd5b813581811115610aa457610aa46109fb565b610ab6601f8201601f19168501610a11565b91508082528784828501011115610acc57600080fd5b80848401858401376000848284010152508093505050509250929050565b634e487b7160e01b600052603260045260246000fd5b600060208284031215610b1257600080fd5b8135610b1d816107db565b9392505050565b634e487b7160e01b600052601160045260246000fd5b81810381811115610b4d57610b4d610b24565b92915050565b600060018201610b6557610b65610b24565b5060010190565b600060408284031215610b7e57600080fd5b6040516040810181811067ffffffffffffffff82111715610ba157610ba16109fb565b6040528235610baf816107db565b81526020928301359281019290925250919050565b600081518084526020808501945080840160005b83811015610c0857815180516001600160a01b031688528301518388015260409096019590820190600101610bd8565b509495945050505050565b60005b83811015610c2e578181015183820152602001610c16565b50506000910152565b60008151808452610c4f816020860160208601610c13565b601f01601f19169290920160200192915050565b6001600160a01b03858116825284166020820152608060408201819052600090610c8f90830185610bc4565b82810360608401526107328185610c37565b600060208284031215610cb357600080fd5b81516001600160e01b031981168114610b1d57600080fd5b6001600160a01b03868116825285811660208301528416604082015260a060608201819052600090610cff90830185610bc4565b8281036080840152610d118185610c37565b98975050505050505050565b600060208284031215610d2f57600080fd5b81518015158114610b1d57600080fd5b60008251610d51818460208701610c13565b9190910192915050565b602081526000610b1d6020830184610c3756fea26469706673582212200b70efb64a8c40e85fc75abba7d3f33052aa2b2633c158b4dab511c416648bed64736f6c63430008110033",
  "linkReferences": {},
  "deployedLinkReferences": {}
}