{
  "_format": "hh-sol-artifact-1",
  "contractName": "TransferAndCall2",
  "sourceName": "contracts/interfaces/TokenReceiver.sol",
  "abi": [
    {
      "inputs": [
        {
          "internalType": "address",
          "name": "_from",
          "type": "address"
        },
        {
          "internalType": "uint256",
          "name": "_amount",
          "type": "uint256"
        },
        {
          "internalType": "bytes",
          "name": "_data",
          "type": "bytes"
        }
      ],
      "name": "onTokenTransfer",
      "outputs": [
        {
          "internalType": "bool",
          "name": "success",
          "type": "bool"
        }
      ],
      "stateMutability": "nonpayable",
      "type": "function"
    },
    {
      "inputs": [
        {
          "internalType": "address",
          "name": "_receiver",
          "type": "address"
        },
        {
          "components": [
            {
              "internalType": "address",
              "name": "token",
              "type": "address"
            },
            {
              "internalType": "uint256",
              "name": "amount",
              "type": "uint256"
            }
          ],
          "internalType": "struct OnTokenTransfer2.Transfer[]",
          "name": "transfers",
          "type": "tuple[]"
        },
        {
          "internalType": "bytes",
          "name": "data",
          "type": "bytes"
        }
      ],
      "name": "transferAndCall2",
      "outputs": [
        {
          "internalType": "bool",
          "name": "success",
          "type": "bool"
        }
      ],
      "stateMutability": "nonpayable",
      "type": "function"
    }
  ],
  "bytecode": "0x608060405234801561001057600080fd5b506109f8806100206000396000f3fe608060405234801561001057600080fd5b50600436106100365760003560e01c806385bc3da01461003b578063a4c0ed3614610062575b600080fd5b61004e6100493660046105ce565b610075565b604051901515815260200160405180910390f35b61004e610070366004610682565b61018f565b6000805b848110156100fb576000868683818110610095576100956106de565b6100ab92602060409092020190810191506106f4565b90506100e833898989868181106100c4576100c46106de565b90506040020160200135846001600160a01b03166102a1909392919063ffffffff16565b50806100f381610718565b915050610079565b506001600160a01b0386163b156101865760405163e3e1853160e01b81526001600160a01b0387169063e3e1853190610140903390899089908990899060040161073f565b6020604051808303816000875af115801561015f573d6000803e3d6000fd5b505050506040513d601f19601f8201168201806040525081019061018391906107cd565b90505b95945050505050565b6000808061019f84860186610805565b60408051600180825281830190925292945090925060009190816020015b60408051808201909152600080825260208201528152602001906001900390816101bd5790505090506040518060400160405280336001600160a01b031681526020018881525081600081518110610217576102176106de565b602090810291909101015260405163e3e1853160e01b81526001600160a01b0384169063e3e1853190610252908b9085908790600401610919565b6020604051808303816000875af1158015610271573d6000803e3d6000fd5b505050506040513d601f19601f8201168201806040525081019061029591906107cd565b98975050505050505050565b604080516001600160a01b0385811660248301528416604482015260648082018490528251808303909101815260849091019091526020810180516001600160e01b03166323b872dd60e01b1790526102fb908590610301565b50505050565b6000610356826040518060400160405280602081526020017f5361666545524332303a206c6f772d6c6576656c2063616c6c206661696c6564815250856001600160a01b03166103dd9092919063ffffffff16565b8051909150156103d8578080602001905181019061037491906107cd565b6103d85760405162461bcd60e51b815260206004820152602a60248201527f5361666545524332303a204552433230206f7065726174696f6e20646964206e6044820152691bdd081cdd58d8d9595960b21b60648201526084015b60405180910390fd5b505050565b60606103ec84846000856103f4565b949350505050565b6060824710156104555760405162461bcd60e51b815260206004820152602660248201527f416464726573733a20696e73756666696369656e742062616c616e636520666f6044820152651c8818d85b1b60d21b60648201526084016103cf565b600080866001600160a01b031685876040516104719190610993565b60006040518083038185875af1925050503d80600081146104ae576040519150601f19603f3d011682016040523d82523d6000602084013e6104b3565b606091505b50915091506104c4878383876104cf565b979650505050505050565b6060831561053e578251600003610537576001600160a01b0385163b6105375760405162461bcd60e51b815260206004820152601d60248201527f416464726573733a2063616c6c20746f206e6f6e2d636f6e747261637400000060448201526064016103cf565b50816103ec565b6103ec83838151156105535781518083602001fd5b8060405162461bcd60e51b81526004016103cf91906109af565b6001600160a01b038116811461058257600080fd5b50565b60008083601f84011261059757600080fd5b50813567ffffffffffffffff8111156105af57600080fd5b6020830191508360208285010111156105c757600080fd5b9250929050565b6000806000806000606086880312156105e657600080fd5b85356105f18161056d565b9450602086013567ffffffffffffffff8082111561060e57600080fd5b818801915088601f83011261062257600080fd5b81358181111561063157600080fd5b8960208260061b850101111561064657600080fd5b60208301965080955050604088013591508082111561066457600080fd5b5061067188828901610585565b969995985093965092949392505050565b6000806000806060858703121561069857600080fd5b84356106a38161056d565b935060208501359250604085013567ffffffffffffffff8111156106c657600080fd5b6106d287828801610585565b95989497509550505050565b634e487b7160e01b600052603260045260246000fd5b60006020828403121561070657600080fd5b81356107118161056d565b9392505050565b60006001820161073857634e487b7160e01b600052601160045260246000fd5b5060010190565b6001600160a01b03868116825260606020808401829052908301869052600091879160808501845b8981101561079857843561077a8161056d565b84168252848301358383015260409485019490910190600101610767565b5085810360408701528681528688838301376000818801830152601f909601601f191690950190940198975050505050505050565b6000602082840312156107df57600080fd5b8151801515811461071157600080fd5b634e487b7160e01b600052604160045260246000fd5b6000806040838503121561081857600080fd5b82356108238161056d565b9150602083013567ffffffffffffffff8082111561084057600080fd5b818501915085601f83011261085457600080fd5b813581811115610866576108666107ef565b604051601f8201601f19908116603f0116810190838211818310171561088e5761088e6107ef565b816040528281528860208487010111156108a757600080fd5b8260208601602083013760006020848301015280955050505050509250929050565b60005b838110156108e45781810151838201526020016108cc565b50506000910152565b600081518084526109058160208601602086016108c9565b601f01601f19169290920160200192915050565b6001600160a01b038481168252606060208084018290528551918401829052600092868201929091906080860190855b818110156109725785518051861684528401518484015294830194604090920191600101610949565b5050858103604087015261098681886108ed565b9998505050505050505050565b600082516109a58184602087016108c9565b9190910192915050565b60208152600061071160208301846108ed56fea2646970667358221220cbc050efadc45a9a65bf90c99555b5bad0c5c524510ab8bdfda408e4d5d14afc64736f6c63430008110033",
  "linkReferences": {},
  "deployedLinkReferences": {}
}